:020000040800F2
:10000000E00700204D020008612A0008752700085B
:100010005D2A0008F9030008E5320008000000002E
:10002000000000000000000000000000712A00082D
:100030000904000800000000692A0008752A000869
:1000400067020008652A00086702000867020008C6
:10005000C10400086D2A0008670200086702000852
:1000600067020008670200086702000867020008CC
:1000700067020008670200086702000867020008BC
:1000800067020008670200086702000867020008AC
:10009000670200086702000867020008670200089C
:1000A000452B0008692B00085D2B0008512B000828
:1000B000670200086702000867020008670200087C
:1000C000670200086702000867020008670200086C
:1000D000670200086702000867020008670200085C
:1000E000670200086702000867020008670200084C
:1000F000670200086702000867020008670200083C
:10010000670200086702000867020008670200082B
:100110006702000867020008752B000867020008E4
:10012000670200086702000867020008670200080B
:1001300067020008670200086702000867020008FB
:1001400067020008670200086702000867020008EB
:1001500067020008FD030008670200087532000806
:1001600067020008670200086702000867020008CB
:10017000670200086702000867020008000000002C
:1001800067020008C504000867020008670200084B
:10019000670200086702000867020008670200089B
:1001A00000000000000000006702000800F002F8F4
:1001B00000F03CF80AA090E8000C82448344AAF1C5
:1001C0000107DA4501D100F031F8AFF2090EBAE8C3
:1001D0000F0013F0010F18BFFB1A43F0010318477B
:1001E000A0310000C0310000103A24BF78C878C1A7
:1001F000FAD8520724BF30C830C144BF04680C602D
:10020000704700000023002400250026103A28BF74
:1002100078C1FBD8520728BF30C148BF0B60704778
:100220001FB503F090F81FBD10B510BD00F0A9F880
:100230001146FFF7F5FF03F057F800F0C7F803B4D5
:10024000FFF7F2FF03BC00F0CFF800000948804739
:1002500009480047FEE7FEE7FEE7FEE7FEE7FEE7A8
:10026000FEE7FEE7FEE7FEE704480549054A064BC0
:1002700070470000312B0008AD010008E0010020AC
:10028000E0070020E0030020E003002053EA020C16
:1002900000F069802DE9F04B4FF00006002B1FBFE6
:1002A000B3FA83F503FA05F424FA05F65E4012BFAB
:1002B0001643B2FA82F502FA05F4C5F120051EBF15
:1002C00022FA05FC44EA0C04203556EA044C4FEAB5
:1002D000144418BF641C4FF000084FF0000990420E
:1002E00071EB030C39D3002919BFB1FA81F701FA78
:1002F00007F6B0FA80F700FA07F6C7F120071EBF2D
:1003000020FA07FC46EA0C062037B6FBF4FCA7EB04
:100310000507103F07F01F0BCBF120062CFA06F65D
:100320000CFA0BFB44BFB3460026202FA4BF5E4649
:100330004FF0000B5BEA060C08BF4FF0010B19EB06
:100340000B0948EB0608ABFB027C06FB02CC0BFB5F
:1003500003CCC01B71EB0C01C1E70B4602464146C2
:100360004846BDE8F08B13B5084318BF4FF0FF3087
:100370000146AFF30080BDE81C40704770477047EE
:100380007047754600F02CF8AE46050069465346A6
:1003900020F00700854618B020B5FFF765FFBDE8DF
:1003A00020404FF000064FF000074FF000084FF0DC
:1003B000000BAC46ACE8C009ACE8C009ACE8C00929
:1003C000ACE8C00921F007018D46704710B504461E
:1003D000AFF300802046BDE81040FFF730BF0000BB
:1003E000004870471000002001491820ABBEFEE70E
:1003F0002600020070470000FEE7000040F2840083
:10040000C2F2000000F0BAB87047000072B600BF38
:10041000FEE7000080B543F61043C4F20203D3F8B0
:1004200000C04FF4407E2CF440721A601A68032911
:1004300038BF4FEA012E42EA0E01196019684FF0E9
:10044000200C21F0F80119601A68C1000B2888BF40
:100450000CEBC00141EA020040F00200186018688D
:1004600040F48030186080BD43F60040C4F20200C2
:10047000016889050FD5016821F4007101600168E8
:1004800041F400610160016821F4006101600168CC
:1004900041F4007101600168490558BF7047016867
:1004A00021F480610160016841F4805101600168BC
:1004B00021F480510160016841F48061016070475E
:1004C00000F040BA7047000070B5866D044600F039
:1004D000C9FB94F83510022928D105462068216C03
:1004E000026822F016020260426922F08002426134
:1004F00009B9A16C19B1016821F008010160016816
:1005000021F00101016000BF20680068C00715D01C
:1005100000F0A8FB401B0628F6D3202060650320CE
:1005200084F83500002184F8341070BD80206065A7
:100530000120002184F8341070BD00BFE06D3F2120
:1005400001FA00F0B060012084F83500002000219D
:1005500084F8341070BD000090F83510022909D1DC
:10056000052180F835100068016821F00101016063
:10057000002070478021416501207047F0B581B0AF
:1005800004460020009040F20800C2F20000026819
:10059000D4E9166048F2B51337680821C1F64E3326
:1005A00081403942A2FB03250CD0226813685B0707
:1005B00008D5136823F004031360B160616D41F046
:1005C0000101616501218140394208D022685269E8
:1005D000120604D5B160616D41F00201616504212C
:1005E0008140394208D022681268920704D5B16070
:1005F000616D41F00401616510218140394217D0DD
:1006000020680268120713D5B160026801685203BE
:1006100008D4C90508D4016821F008010160216CE3
:1006200021B905E008033FD4216C09B12046884771
:10063000E16D202000FA01F23A4241D020680368BF
:10064000DB063DD5B26094F835300268052B1BD12E
:1006500022F016020260426922F080024261226C9E
:100660000AB9A26C1AB1026822F0080202603F20A7
:100670008840B060012084F83500216D00200029F9
:1006800084F8340052D157E00168520310D4C905F0
:1006900012D4016821F010010160012084F83500B6
:1006A000002084F8340007E0A16C0029BED1BFE728
:1006B000080301D4616C00E0E16B09B12046884772
:1006C000606DC8B3606DC0072ED0052084F835007A
:1006D0002068A90A026822F001020260009A013231
:1006E0008A4200921AD80268D20717D0009A0132C3
:1006F0008A42009212D80268D2070FD0009A0132C3
:100700008A4200920AD80268D20707D0009A0132C2
:100710008A42009202D80268D207DFD1012084F811
:100720003500002084F83400E16C29B1204601B086
:10073000BDE8F040084700BF01B0F0BD2DE9F04131
:10074000044600F08FFAECB10546022084F835002B
:100750000020216884F83400086820F00100086057
:1007600021680868C00711D000F07CFA401B0528FA
:10077000F6D9032520230320636584F83550BDE8AE
:10078000F08100BF0120BDE8F08100BF086848F299
:100790003F02CFF21002D4E9013500EA020C04F165
:1007A0000C0898E8C10143EA0C032B431843D4E931
:1007B000072E304338431043626A40EA0E00042A91
:1007C00040EA08031CD1206BD4E90A2E40EA0E004F
:1007D000184308604869BEF1000F20F0030040EAAA
:1007E000020040F0040C11D0B8F5005F36D0B8F12B
:1007F000000F45D1022A46D0012A3BD032B942E04F
:100800000B60486920F0070040EA020C01F0F80094
:100810004AF6AB221038CAF6AA22A0FB02231A0914
:1008200043F27833C0F600039A5C40F2FF335F284E
:100830004FF03F00C1F814C021EA030100FA02F0B2
:1008400088BF0431C4E91612886000230125002006
:10085000636584F83550BDE8F08100BF032AD5D820
:10086000012540230120DFE802F0030E030500BF4D
:1008700082E700BFAEF1C070B0FA80F0400904E03A
:10088000032A04D3C2D1CEF300600028BED00125D4
:1008900040230120636584F83550BDE8F0810000F5
:1008A00070B590F834C0BCF1010F46D04FF0010C88
:1008B00080F834C0D0F858E090F835C0BCF1010F92
:1008C00038D14FF0020C80F835C04FF0000CC0F862
:1008D00054C0D0F800C08468056CC06DDCF80060BE
:1008E000402C26F48026CCF80060CCF804300B466F
:1008F00004BF13460A463F2101FA00F0CCF8083045
:10090000CCF80C20CEF80800DCF8000040F016000F
:10091000CCF800002DB1DCF8000040F00800CCF865
:100920000000DCF8000040F00100CCF800000020DE
:1009300070BD00BF002180F83410022070BD00009F
:1009400070470000B0B543F60C44C4F202042068BE
:1009500040F2BC1510F4F97FC2F2000531D02878BE
:10096000012807D1E8684FF0FF31E9602168C90626
:1009700008D40DE02878022814BF68692869216826
:10098000C90605D5E96941F01001E961102121602E
:10099000216889062ED42168490634D421680906C5
:1009A0003AD42168C90540D42168890705D5E96989
:1009B00041F02001E9610221216000F06FF8002080
:1009C00028702068C00756D00120206028780128B0
:1009D00036D16868013868606868002840D0E868E7
:1009E000FFF7AEFFE8680130E860E868297AFFF7B2
:1009F00011FD40E0E96941F00801E9612021216031
:100A000021684906CAD5E96941F00401E96140213C
:100A1000216021680906C4D5E96941F00201E96154
:100A2000802121602168C905BED5E96941F0010135
:100A3000E9614FF48071216021688907B7D4BCE770
:100A4000284610F8141B022903D1FFF70DFD05F10C
:100A500010000068FFF774FF002028700BE000BF53
:100A60004FF0FF30E86000202870FFF7FDFC4FF0EA
:100A7000FF30FFF765FF2878002818BFB0BD606819
:100A800048F2FF0188436060606820F08070606019
:100A9000606820F000706060B0BD0000704700002A
:100AA0002DE9F04F82B000F13E4242F2004502F1E2
:100AB000FF77C4F202050A2243F6004E4FEAB7263A
:100AC000A84208BF0922C4F2010E092E38BF4FEA1E
:100AD000B7220125002600274FF00008009208E009
:100AE00008F101080437B8F1100F06F1020600F012
:100AF000A7800C6805FA08F914EA090FF0D0D1F8BC
:100B000004B003220BF0030CACF10104B240012C41
:100B10006FEA020A10D88268CC6802EA0A02B4407E
:100B2000224382604268CBF3001422EA090204FAED
:100B300008F42243426005E0BCF1030F02D14FF0FC
:100B4000030C20E0C2688C6802EA0A02B440224327
:100B5000BCF1020FC26016D16FF0030202EA580224
:100B60000244D2F820C007F01C050F230C69AB40EB
:100B70002CEA030304FA05F52B431362D1F804B001
:100B800001250BF0030C02680CFA06F302EA0A02D4
:100B90001A431BF4403F0260A2D0002243F64403F4
:100BA0000192C4F202031A684FF6084C42F48042E4
:100BB0001A601A68CFF6FF7C02F480420192019A13
:100BC00028F00302724452F80C3007F00C050F2491
:100BD000AC40A343009C04FA05F52B4342F80C30CB
:100BE000DEF808204B6842EA090543F60C4CDC02AB
:100BF00058BF22EA0905CEF80850C4F2010CDCF80F
:100C000000209C0242EA090558BF22EA0905CCF8F7
:100C10000050DEF804209C0342EA090558BF22EA8E
:100C20000905CEF80450DEF80020DB0342EA09058E
:100C300058BF22EA0905CEF80050012550E700BF51
:100C400002B0BDE8F08F0000426902EA010391435F
:100C500041EA034181617047002A08BF09048161AC
:100C60007047000040F2DC10C2F2000000687047DC
:100C700040F2000040F2DC11C2F20000C2F20001BA
:100C800000780A68104408607047000080B543F699
:100C90000040C4F20200016841F400710160016883
:100CA00041F480610160016841F4807101600320BA
:100CB00000F0AAF80F2000F005F800F027F8002057
:100CC00080BD000070B540F20006C2F2000640F29E
:100CD00008013278C2F200014FF47A730968B3FB5D
:100CE000F2F20446B1FBF2F1084600F0B5FB0F2C1E
:100CF0004FF0010508D838B94FF0FF3021460022E7
:100D0000002500F055F87460284670BD80B582B0AB
:100D1000002043F640010190C4F202014A6842F407
:100D200080424A604A6802F480420192019A00902F
:100D30000868002240F0805008600868002100F038
:100D4000805000900098012000F032F8012000F05F
:100D50001BF804200021002200F02AF8042000F0F3
:100D600013F805200021002200F022F8052000F0F1
:100D70000BF851200021002200F01AF8512002B097
:100D8000BDE88040AFF30080002848BF7047C1B283
:100D900000F01F00012202FA00F04EF20012CEF223
:100DA000000242EAD10121F003010860704700000F
:100DB00010B54EF60C5CCEF2000CDCF80030C3F33C
:100DC000022E8EF00704042C28BF0424BEF1030376
:100DD0004FF0FF3E0EFA04F438BF0023A1439940C0
:100DE0000EFA03F39A43114300F00F0200F160433F
:100DF0000901043A03F564436244002848BF02F144
:100E00000C03197010BD00004EF60C51CEF200011B
:100E10000A684FF6FF031A4060F30A2242F080602E
:100E200040F0FD700860704770B582B000200190FE
:100E300043F64000C4F202000168402641F08051B0
:100E400001600068C4F20E2600F080500190019805
:100E500047F204050120C4F200053060FFF702FFED
:100E6000044600BF2868C00306D4FFF7FBFE001B42
:100E7000B0F57A7FF6D90EE001207060FFF7F2FE40
:100E8000044600BF2868800308D4FFF7EBFE001B70
:100E9000B0F57A7FF6D9032002B070BD002002B011
:100EA00070BD00007047000010B543F61444C4F252
:100EB00001042068C00358BF10BDFFF7F3FF4FF4D3
:100EC0008030206010BD00002DE9F041002800F0C6
:100ED0008B8043F60808C4F202080446D8F8F803E9
:100EE0000D4600F00F00884207D288F8F853D8F872
:100EF000F80300F00F00A84276D12068810717D5CB
:100F0000410705D5D8F8001041F4E051C8F80010A9
:100F1000010705D5D8F8001041F46041C8F8001069
:100F2000D8F80010A26821F0F0011143C8F80010B1
:100F3000C0073FD1D8F8F80300F00F00A84207D946
:100F400088F8F853D8F8F80300F00F00A8424BD106
:100F50002068410707D5D8F80010E26821F4E05175
:100F60001143C8F80010000708D5D8F8000021691F
:100F700020F4604040EAC100C8F8000000F07CF8AE
:100F8000D8F8001043F26032C1F30311C0F600023A
:100F9000515C40F2080220FA01F140F20400C2F272
:100FA00000000068C2F200021160FFF78BFE002013
:100FB000BDE8F0816068811E022907D258F8081C3C
:100FC00089015CBF0120BDE8F08111E0012807D153
:100FD00058F8081C89035CBF0120BDE8F08107E0D8
:100FE00058F8081C890703D40120BDE8F08100BF30
:100FF000D8F8001021F003010843C8F80000FFF7FB
:1010000031FE064641F28837D8F80000616800F0EA
:101010000C00B0EB810F8DD0FFF724FE801BB8428F
:10102000F2D90320BDE8F08140F2080043F6080140
:10103000C2F20000C4F202010068096843F2703293
:10104000C1F38221C0F60002515CC8407047000025
:1010500040F2080043F60801C2F20000C4F20201A7
:101060000068096843F27032C1F34231C0F60002F1
:10107000515CC8407047000010B543F60404C4F248
:101080000204606800F00C0008280BD0042819BF87
:1010900042F20040C0F2F40041F60030C0F2B70066
:1010A00010BD00BF206821682368490241F6003165
:1010B000C0F2B70100F03F02C3F388105CBF42F2F8
:1010C0000041C0F2F401A1FB00010023FFF7DEF8AC
:1010D00021680222C1F3014102EB4101B0FBF1F0B2
:1010E00010BD00002DE9F04182B0002868D0044610
:1010F000007843F60006C007C4F202060BD0B068C1
:1011000000F00C00042840F09F803068800302D576
:101110006068002854D0207880071AD5B06810F095
:101120000C0F09D0B06800F00C00082840F0A68031
:101130007068400200F1A2803068800702D5E06844
:1011400001283DD13068216920F0F80040EAC10053
:1011500030602078000737D4207840074CD4A56948
:1011600055B3B06800F00C00082840F0BB80012D9A
:1011700026D07068E16900F480028A4220D1216A99
:1011800000F03F028A421BD147F6C071626A0140FB
:10119000B1EB821F14D1A16A4FF6FF73C9039943C3
:1011A00000F44032A1F580318A4209D1E16A00F0B1
:1011B0007060B0EB016F03D1002002B0BDE8F08198
:1011C000012002B0BDE8F0816069002840F2000013
:1011D000C4F2472076D00121C0F8801EFFF742FDFF
:1011E000054600BF706F8007B6D4FFF73BFD401B7C
:1011F0000228F7D9DDE000BF306C10F080580AD12A
:1012000000200190306C40F080503064306C00F071
:1012100080500190019847F20007C4F20007386837
:10122000C00541D4386840F480703860FFF71AFD7B
:10123000054600BF3868C00536D4FFF713FD401BD4
:101240000228F7D9B5E000BFB06800F00C0008280C
:1012500003D1706840023FF558AF6068B0F5803F39
:1012600007D0B0F5A02F40F08D80306840F480208A
:101270003060306840F4803030608DE0E0680028F5
:1012800052D00020C4F2472001210160FFF7EAFCA0
:10129000054600BF306880073FF554AFFFF7E2FC1A
:1012A000401B0228F6D984E0A068012805D0052853
:1012B0004ED1306F40F004003067306F40F00100D5
:1012C00030674FE00021C0F8801EFFF7CBFC0546D9
:1012D000706F80077FF540AFFFF7C4FC401B02280A
:1012E000F6D966E00027C4F2472700203866FFF7EA
:1012F000B9FC022D05460BD1306880015ED5FFF7A1
:10130000B1FC401B02284FF00300F5D955E700BFA0
:10131000306880017FF550AFFFF7A4FC401B022826
:101320004FF00300F4D948E70020C4F24720002121
:101330000160FFF797FC0546306880077FF509AF2D
:10134000FFF790FC401B02284FF00300F4D934E76C
:10135000316F002821F001013167316F21F0040164
:1013600031674DD0FFF77EFC054641F2883700BF5C
:10137000306F800756D4FFF775FC401BB842F7D991
:1013800017E000BF3168002821F4803131603168F6
:1013900021F4802131604FD0FFF764FC054600BF87
:1013A000306880033FF5B7AEFFF75CFC401B642854
:1013B000F6D9032002B0BDE8F08100BF04F11C059E
:1013C0002FCD084340EA8210D9034FF6FF729143B4
:1013D000A1F5803140EA056008437060012038665D
:1013E000FFF740FC044600BF306880013FF5E4AEE3
:1013F000FFF738FC001B02284FF00300F4D9DCE6AD
:10140000FFF730FC054641F2883700BF306F800798
:1014100008D5FFF727FC401BB8424FF00300F5D971
:10142000CBE600BFB8F1000F7FF499AE306C20F02E
:101430008050306493E600BFFFF714FC054600BF00
:10144000306880037FF567AEFFF70CFC401B642813
:101450004FF00300F4D9B0E6411E0020B0EB116F4D
:101460001CBF012070474EF21002CEF20002516004
:101470004EF62351CEF20001F0230B70072190604D
:10148000116070477047000070470000B0B590F8D9
:101490003C20012A04BF0220B0BD01F108053CCD6B
:1014A000D1E900CE23F47C5322F470521A432EF477
:1014B000F0431A432CF4E0431A4324F4C0431A4384
:1014C0002A43C96922F48042036811435964002108
:1014D00080F83C100846B0BD10B590F83C20012AB9
:1014E0004FF0020251D080F83D200268D2F804E0AB
:1014F000D2F808C00C682EF07003234341F2FF7449
:10150000C4F20004A24253600EDC40F2FF73C4F246
:1015100000039A4216DCB2F1804F2BD040F2004318
:10152000C4F2000324E000BF40F2FF33C4F2010321
:101530009A4213DC41F60003C4F200039A4219D028
:10154000002313E040F60003C4F200039A4211D0D6
:1015500040F60043C4F200030AE000BF44F2000377
:10156000C4F201039A4205D040F20043C4F20103E1
:101570009A4204D149682CF08003194391600121FB
:10158000002280F83D1080F83C20104610BD00007D
:10159000002804BF0120704710B5044690F83D00B4
:1015A00028B9002084F83C00204600F01FF80220F3
:1015B00084F83D002068211D01F0E2FA012084F842
:1015C000460084F83E0084F83F0084F8400084F828
:1015D000410084F8420084F8430084F8440084F811
:1015E000450084F83D00002010BD000080B586B0A5
:1015F000006841F20001C4F2000188424ED000218F
:10160000C4F20101884246D1002043F63001019026
:10161000C4F202014A6942F001024A614A6902F0D9
:1016200001020192019A01900A6842F001020A60E7
:10163000096801F001010191019940210191022104
:10164000CDE902100490012005900020C4F20200B0
:1016500001A9FFF725FA182000210022FFF7A8FBB7
:101660001820FFF791FB192000210022FFF7A0FBB3
:101670001920FFF789FB1A2000210022FFF798FBB1
:101680001A20FFF781FB1B2000210022FFF790FBAF
:101690001B20FFF779FB06B080BD00BF0020019042
:1016A00043F63000C4F202000169002241F010014B
:1016B00001610069002100F01000019001983620BE
:1016C000FFF776FB362006B0BDE88040FFF75CBB35
:1016D00090F83D1001291CBF01207047022180F8BD
:1016E0003D10006841F2FF72C168C4F200029042EE
:1016F00041F00101C1600DDC40F2FF71C4F2000154
:10170000884215DCB0F1804F2AD040F20041C4F28B
:10171000000123E040F2FF31C4F20101884213DCF2
:1017200041F60001C4F20001884219D0002113E003
:1017300040F60001C4F20001884211D040F6004199
:10174000C4F200010AE000BF44F20001C4F201014A
:10175000884205D040F20041C4F20101884206D11E
:10176000816801F00701062904BF00207047016865
:1017700041F00101016000207047000080B590F841
:101780003C20012A4FF0020200F0C28080F83D2088
:10179000D0F800C04FF67772DCF8083023EA020276
:1017A000CCF808200B684F2B28DC1F2B44DD202BA6
:1017B00045D0302B43D0402B40F0AC80D1F804E032
:1017C000C968DCF82030DCF8202022F00102CCF8D7
:1017D0002020DCF8182022F0F00242EA011123F068
:1017E0000A0242EA0E02CCF81810CCF82020DCF8ED
:1017F000081041F0470121F0300180E06F2B27DD18
:10180000B3F5005F48D0B3F5805F7AD0702B40F01D
:101810008180D1E901E3C968DCF8082043EA0E03BE
:1018200022F47F4243EA01211143CCF80810DCF88E
:10183000081041F0770162E00BB1102B6AD1DCF89F
:10184000081021F07001194341F0070157E000BF73
:10185000502B35D0602B5DD1D1F804E0C968DCF89D
:101860002030DCF8202022F01002CCF82020DCF818
:10187000182022F4704242EA013123F0A00242EA29
:101880000E12CCF81810CCF82020DCF8081041F02B
:10189000670121F0100132E0D1E901E3C968DCF809
:1018A000082043EA0E0322F47F4243EA0121114358
:1018B000CCF80810DCF8081041F480411FE000BFAC
:1018C000D1F804E0C968DCF82030DCF8202022F0F0
:1018D0000102CCF82020DCF8182022F0F00242EAC5
:1018E000011123F00A0242EA0E02CCF81810CCF8DB
:1018F0002020DCF8081041F0570121F02001CCF83D
:1019000008100022012180F83D10002180F83C10D1
:10191000104680BD0122F5E77047000070B504460F
:101920000068C5680669B10716D515F0020113D025
:101930006FF002010161012121778069800703D0E6
:101940002046FFF7E9FF05E0204600F069F9204650
:1019500000F098F900202077700719D515F00400E1
:1019600016D020686FF0040101610221217780699F
:1019700010F4407F04D02046FFF7CEFF06E000BF02
:10198000204600F04DF9204600F07CF90020207739
:10199000300717D515F0080014D020686FF0080143
:1019A000016104212177C069800703D02046FFF739
:1019B000B3FF05E0204600F033F9204600F062F95D
:1019C00000202077F00619D515F0100016D02068F9
:1019D0006FF01001016108212177C06910F4407F88
:1019E00004D02046FFF798FF06E000BF204600F035
:1019F00017F9204600F046F900202077F00718BFBD
:101A000015F0010002D1300609D412E020686FF011
:101A100001010161204600F037F9300609D515F0C3
:101A2000800006D020686FF0800101612046FFF73A
:101A300029FD700609D515F0400006D020686FF02A
:101A400040010161204600F02DF9B00658BF70BD7D
:101A500015F0200008D021686FF0200220460A61AE
:101A6000BDE87040FFF710BD70BD0000F0B590F804
:101A70003C30012B04BF0220F0BD4FEAB202032A22
:101A800000F2C880DFE802F00234689A0268136A44
:101A9000166A23F0020326F001061662D2F804E06B
:101AA000D2F818C08D6840F2004642F48064C4F257
:101AB0000106B44243EA050305D1CD6823F00C03C7
:101AC00025F004052B430D68B44207D1D1E9054642
:101AD0002EF4407E44EA0E0444EA060E2CF073060F
:101AE0002E43C2F804E09661496851638BE000BF61
:101AF000026840F20045136A166A23F0200326F0BC
:101B000010061662D2F804E0D2F818C08E6842F4CB
:101B10008064C4F20105AC4243EA061307D1CE68E3
:101B20006FF0400723F0C00307EA061633430E6840
:101B3000AC4206D1D1E905452EF44067254347EA7A
:101B4000850E2CF4E64747EA0627C2F804E09761C1
:101B50004968916357E000BF026840F20045136A8C
:101B6000176A23F4007327F480771762D2F804E031
:101B7000D2F81CC08E6842F48064C4F20105AC4205
:101B800043EA062307D1CE6840F2FF47360223F42A
:101B90004063BE4333430E68AC4206D1D1E90545EC
:101BA0002EF44057254347EA051E2CF073073743B0
:101BB000C2F804E0D7614968D16324E0026840F2CA
:101BC0000047D2F820C0136A42F4806623F48053A1
:101BD00013625368D4690D68D1F808E0C4F20107B4
:101BE000BE4204D14E6923F4804343EA861324F4B1
:101BF000E64646EA05265360D6612CF4005749684C
:101C000047EA0E33116400211362002280F83C2061
:101C10000846F0BD0121002280F83C200846F0BDB6
:101C200070470000002804BF0120704710B504462B
:101C300090F83D0028B9002084F83C00204600F0D0
:101C40001FF8022084F83D002068211D00F098FF55
:101C5000012084F8460084F83E0084F83F0084F8B0
:101C6000400084F8410084F8420084F8430084F87E
:101C7000440084F8450084F83D00002010BD0000B9
:101C80007047000070470000016841F20000C4F294
:101C90000000814218BF704700F501304FF48041C9
:101CA000FEF7D2BF704700007047000010B5044631
:101CB0000068416994F84120212A56D111F0800131
:101CC00053D000BF206850E8050F216820F0800045
:101CD00041E80502DAB1206850E8050F216820F0DC
:101CE000800041E8050292B1206850E8050F2168A4
:101CF00020F0800041E805024AB1206850E8050F55
:101D0000216820F0800041E80502002ADAD1A06BAA
:101D1000002818BFFEF7D8FB206850E8030F2168A1
:101D200020F0C00041E80302DAB1206850E8030F58
:101D3000216820F0C00041E8030292B1206850E819
:101D4000030F216820F0C00041E803024AB1206877
:101D500050E8030F216820F0C00041E80302002A88
:101D6000DAD1202084F841002068406994F84210BC
:101D7000222940F0A78010F0400000F0A38000BFAF
:101D8000206850E8050F216820F0400041E8050276
:101D9000DAB1206850E8050F216820F0400041E8E2
:101DA000050292B1206850E8050F216820F040003C
:101DB00041E805024AB1206850E8050F216820F08B
:101DC000400041E80502002ADAD1E06B002818BF84
:101DD000FEF77AFB206850E8030F216820F490702A
:101DE00041E80302BAB3206850E8030F216820F4E9
:101DF000907041E8030272B3206850E8030F216835
:101E000020F4907041E803022AB3206850E8030FE1
:101E1000216820F4907041E80302002ADAD11AE028
:101E2000206850E8050F216820F0010041E8050214
:101E3000DAB1206850E8050F216820F0010041E880
:101E4000050292B1206850E8050F216820F00100DA
:101E500041E805024AB1206850E8050F216820F0EA
:101E6000010041E80502002ADAD1206B012824D1C3
:101E7000206850E8030F216820F0100041E80302B9
:101E8000DAB1206850E8030F216820F0100041E823
:101E9000030292B1206850E8030F216820F010007F
:101EA00041E803024AB1206850E8030F216820F09E
:101EB000100041E80302002ADAD1202084F8420011
:101EC00000202063002010BD70470000B0B582B034
:101ED000044600680168C368426901F02F05202D9F
:101EE00003F0200506D12DB1204602B0BDE8B04078
:101EF00001F0C8B85FEA017C1EBF02F0010E03F4D6
:101F0000907212EB0E0253D1226B012A05D111F00F
:101F1000100218BF13F0100236D10A0622D513F0B2
:101F200080021FD094F8411021293FD1A168B1F55A
:101F3000805F03D12169002900F07282216A4A1C66
:101F4000226209784160E18C01390A04E1842DD1D3
:101F5000C16821F08001C160C16841F04001C160E9
:101F600002B0B0BD490621D513F040011ED0C168B2
:101F700021F04001C1602021204684F8411002B0C8
:101F8000BDE8B04000F0F2BB002101910168019171
:101F90004168019101994069400613D4A08DE18DFB
:101FA000E28D002A18BF884240F0BC8102B0B0BD6B
:101FB000CA0718BF13F4807240F0B8804A0700F1D6
:101FC000BB80C0E0E06B016849688AB2002AEDD0AE
:101FD000A38D9A42EAD2E185C069B0F5807F00F016
:101FE0009C80206850E8030F216820F4807041E84D
:101FF0000302DAB1206850E8030F216820F48070F2
:1020000041E8030292B1206850E8030F216820F4F0
:10201000807041E803024AB1206850E8030F21684C
:1020200020F4807041E80302002ADAD1206850E8E9
:10203000050F216820F0010041E80502DAB12068AF
:1020400050E8050F216820F0010041E8050292B137
:10205000206850E8050F216820F0010041E80502E2
:102060004AB1206850E8050F216820F0010041E8DE
:102070000502002ADAD1206850E8050F216820F017
:10208000400041E80502DAB1206850E8050F2168F8
:1020900020F0400041E8050292B1206850E8050FA9
:1020A000216820F0400041E805024AB1206850E86C
:1020B000050F216820F0400041E80502002ADAD12E
:1020C000202084F8420000202063206850E8030F9D
:1020D000216820F0100041E80302DAB1206850E8DE
:1020E000030F216820F0100041E8030292B120683C
:1020F00050E8030F216820F0100041E803024AB1C4
:10210000206850E8030F216820F0100041E8030226
:10211000002ADAD1E06BFEF7D7F902206063A08DC8
:10212000E18D401A81B2204675E100BF626C42F039
:10213000010262644A0706D5BEF1000F03D0626C4B
:1021400042F0020262648A0706D5BEF1000F03D096
:10215000626C42F004026264BCF1000F09D545EAEA
:102160000E02B2FA82F2520903D1626C42F0080206
:102170006264626C002A3FF419AF11F0200118BFAD
:10218000002D03D0204600F07DFF20684069616C7F
:1021900000F0400001F00801401800F0B58000BFD9
:1021A000206850E8030F216820F4907041E8030292
:1021B000BAB3206850E8030F216820F4907041E81A
:1021C000030272B3206850E8030F216820F4907076
:1021D00041E803022AB3206850E8030F216820F485
:1021E000907041E80302002ADAD11AE0206850E832
:1021F000050F216820F0010041E80502DAB12068EE
:1022000050E8050F216820F0010041E8050292B175
:10221000206850E8050F216820F0010041E8050220
:102220004AB1206850E8050F216820F0010041E81C
:102230000502002ADAD1206B012824D1206850E859
:10224000030F216820F0100041E80302DAB1206892
:1022500050E8030F216820F0100041E8030292B11A
:10226000206850E8030F216820F0100041E80302C5
:102270004AB1206850E8030F216820F0100041E8BF
:102280000302002ADAD1202084F8420000202063D3
:102290002068406940063FD5206850E8050F216856
:1022A00020F0400041E80502DAB1206850E8050F4F
:1022B000216820F0400041E8050292B1206850E812
:1022C000050F216820F0400041E805024AB120686E
:1022D00050E8050F216820F0400041E80502002A7F
:1022E000DAD1E06BC0B142F6CD41C0F60001016524
:1022F000FEF732F900283FF459AEE06B016D02B0F1
:10230000BDE8B040084700BF2046FFF7DDFD0020D4
:10231000606402B0B0BD00BF204602B0BDE8B0406E
:10232000FFF7D2BD401A216851E8031F226821F44B
:10233000907142E80313DBB1216851E8031F226862
:1023400021F4907142E8031393B1216851E8031F0F
:10235000226821F4907142E803134BB1216851E8DF
:10236000031F226821F4907142E80313002BDAD195
:10237000216851E8051F226821F0010142E8051398
:10238000DBB1216851E8051F226821F0010142E814
:10239000051393B1216851E8051F226821F001015E
:1023A00042E805134BB1216851E8051F226821F06E
:1023B000010142E80513002BDAD1202184F84210F4
:1023C00000212163216851E8031F226821F01001D8
:1023D00042E80313DBB1216851E8031F226821F0B2
:1023E000100142E8031393B1216851E8031F2268EA
:1023F00021F0100142E803134BB1216851E8031F9B
:10240000226821F0100142E80313002BDAD10222E6
:1024100081B22046626302B0BDE8B040FFF744BC21
:10242000216A31F8022B6FF35F22426021628AE554
:10243000002804BF0120704710B5044690F8410001
:1024400028B9002084F84000204600F021F824201C
:1024500084F841002068C16821F40051C160204621
:1024600000F090FE2068016921F49041016141690A
:1024700021F02A014161C16841F40051C16000208E
:102480002021606484F8411084F84210606310BD1C
:1024900070B586B00446016841F20040C4F2010004
:1024A000814201D006B070BD002643F6300101968E
:1024B000C4F202014A6900F5823042F020024A610A
:1024C0004A6902F020020192019A01960A6842F0DC
:1024D00040020A60096801F04001019101994FF43E
:1024E000844101910221CDE90216032104910821C2
:1024F000059101A9FEF7D4FA40F2840546F2A04006
:10250000C2F20005C4F202004FF0206140224FF4F5
:10251000806385E847002846C5E90436C5E90666B4
:10252000C5E90866FEF70AF9002818BFFDF76EFF37
:10253000472000210022A563AC63FEF739FC472049
:10254000FEF722FC06B070BD70B582B0044690F86C
:10255000420020280AD113460A4600294FF0010004
:1025600018BF002B06D102B070BD00BF022002B020
:1025700070BD00BF002622202663A262A385666488
:1025800084F842002168E06B42F6556C42F6B57E55
:1025900042F6D945C0F6000CC0F6000EC0F60005A4
:1025A0000431C0E90FCEC0E91356FEF779F9019660
:1025B000206801680191406801900198206928B362
:1025C000206850E8030F216840F4807041E803025E
:1025D000E2B1206850E8030F216840F4807041E8C0
:1025E00003029AB1206850E8030F216840F480701C
:1025F00041E8030252B1206850E8030F216840F41B
:10260000807041E80302002ADAD100BF206850E858
:10261000050F216840F0010041E80502E2B12068A1
:1026200050E8050F216840F0010041E805029AB129
:10263000206850E8050F216840F0010041E80502DC
:1026400052B1206850E8050F216840F0010041E8D0
:102650000502002ADAD100BF206850E8050F216882
:1026600040F0400041E80502DAB1206850E8050F6B
:10267000216840F0400041E8050292B1206850E82E
:10268000050F216840F0400041E805024AB120688A
:1026900050E8050F216840F0400041E80502002A9B
:1026A000DAD1002002B070BD704700007047000012
:1026B000B0B5044690F8410020281CBF0220B0BDF0
:1026C00000294FF001004DD0002A134608BFB0BDCD
:1026D0004FF0000C21202162A384E384C4F844C09D
:1026E00084F84100A06B42F6CD7E43F27D0522685E
:1026F000C0F6000EC0F60005C0E90FE542F6D94568
:10270000C0F600050432C0E9135CFEF7C9F8206882
:102710006FF04001016000BF206850E8050F21689C
:1027200040F0800041E80502F2B1206850E8050F52
:10273000216840F0800041E80502AAB1206850E815
:10274000050F216840F0800041E8050262B1206871
:1027500050E8050F216840F0800041E80502002A9A
:10276000DAD10020B0BD00BF0020B0BD704700002E
:1027700070470000FEE7000080B582B000200190A5
:1027800043F63000C4F202000168002241F48001E7
:1027900001600068002100F480000190019845204C
:1027A000FEF706FB452002B0BDE88040FEF7ECBA1C
:1027B000F0B587B0002643F63000CDE905660196F6
:1027C000C4F20200016841F2004441F0400101609E
:1027D0000168C4F2020401F04001019101990196DF
:1027E0000168002241F00101016001684FF4804757
:1027F00001F00101019101990196016841F0800108
:102800000160016801F08001019101990196016860
:1028100041F002010160016801F00201019101999A
:102820000196016841F010010160016801F010019A
:10283000019101990196016841F020010160006851
:102840004FF4804100F02000019001982046FEF7EF
:1028500003FA042002ADCDE90206A4F58050294612
:102860000496FEF71DF90120CDE90306204629460E
:1028700002970596FEF714F907B0F0BDB0B59CB00D
:10288000002540F2E400C4F201050021C2F200007C
:1028900042F2273241F287331691CDE9141111919A
:1028A000CDE90F11CDE90D11CDE90B11CDE90911DC
:1028B000CDE90711CDE90511CDE90311CDE90111EC
:1028C000C0E90052C0E90213C0E904118161FEF7BA
:1028D0005FFE002818BFFDF799FD4FF4805013905C
:1028E00040F2E400C2F2000013A9FEF747FF0028FF
:1028F00018BFFDF78BFD40F2E400C2F20000FFF7C5
:1029000091F9002818BFFDF781FD40F2E400002492
:10291000C2F2000010A9CDE91044FEF7DDFD002849
:1029200018BFFDF773FD3020CDE90904CDE90B4454
:10293000CDE90D440F9440F2E404C2F2000409A969
:1029400020460422FFF792F8002818BFFDF75EFD2D
:102950002068816941F4006181614FF48051002059
:1029600005914FF40051CDE90100CDE90300069136
:10297000089001A92046FEF789FD002818BFFDF741
:1029800045FD2068A84201D01CB0B0BD002043F630
:1029900030011790C4F202010A6842F010020A6086
:1029A000096801F01001179117994FF40061179110
:1029B0000221CDE918101A9001201B9005F58830EE
:1029C00017A9FEF76DF81CB0B0BD000080B582B04D
:1029D00040F22C1041F200020021C2F20000C4F2C9
:1029E000000241F2931341F2873CCDE90011C0E9A6
:1029F0000023C0E9021C8161FEF7CAFD002818BF50
:102A0000FDF704FD40F22C10C2F200006946FEF70B
:102A100063FD002818BFFDF7F9FC02B080BD00007F
:102A200080B540F2741041F20041C2F20000C4F2DD
:102A3000010100234FF00C0C4FF4E13280E80E004E
:102A4000C0E90333C0E905C3C361FFF7F1FC002807
:102A500008BF80BDBDE88040FDF7D8BCFEE70000A0
:102A6000FEE70000FEF720BA704700007047000044
:102A700070470000FEF7FCB880B592B0002043F626
:102A80004001CDE90A00CDE908000590CDE9030039
:102A9000CDE901000090C4F202010A6842F08052C0
:102AA0000A60096801F0805100910099009047F296
:102AB0000000C4F20000016841F440410160006878
:102AC0004FF4800100F440400090009801200690EF
:102AD0004FF480300D910621079002200E91B42111
:102AE0000C90CDE90F100420119006A8FEF7FAFA19
:102AF00010B172B6FEE700BFFEF796F910B172B6DC
:102B0000FEE700BF0F2001900220029000200390FA
:102B10004FF4A05004904FF48050059001A8052177
:102B2000FEF7D2F910B172B6FEE700BF12B080BD59
:102B30004EF68850CEF20000016841F47001016049
:102B40007047000040F2E400C2F20000FEF7E6BE6B
:102B500040F2E400C2F20000FEF7E0BE40F2E40002
:102B6000C2F20000FEF7DABE40F2E400C2F200005A
:102B7000FEF7D4BE40F22C10C2F20000FEF7CEBE2B
:102B800010B540F6FF3E0368C4F2000E40F2004C60
:102B90007045C4F2010C27DCB0F1804F31D040F217
:102BA0000042C4F2000290422BD040F60002C4F270
:102BB0000002904225D041F6FF72C4F2000290421A
:102BC00029DC70453CDCB0F1804F5FD040F2004220
:102BD000C4F20002904259D040F60002C4F2000252
:102BE000904253D056E000BF40F60042C4F20002CB
:102BF000904206D0604504D00022C4F20102904207
:102C0000D9D14A6823F07003134341F6FF72C4F22E
:102C100000029042D5DD43F6FF72C4F201029042F9
:102C200022DC42F20002C4F2000290422ED00022C6
:102C3000C4F20102904229D0604527D02AE000BFAB
:102C400040F60042C4F2000290421FD041F600025A
:102C5000C4F20002904219D041F60042C4F20002D0
:102C6000904213D016E000BF44F20002C4F2010209
:102C700090420BD044F60002C4F20102904205D00B
:102C800044F20042C4F20102904203D1CA6823F424
:102C90004073134323F080024B69D1F800E08C6845
:102CA0001A430260C46240F48062C0F828E06245C2
:102CB00004BF09690163012141610169C90708BFB6
:102CC00010BD016921F00101016110BD806B00217F
:102CD000C185C184FFF7F8B8806B01684A6990F834
:102CE0004130212B2DD112F080022AD00021C18445
:102CF000016851E8031F026821F0C00142E8031394
:102D0000DBB1016851E8031F026821F0C00142E80D
:102D1000031393B1016851E8031F026821F0C00159
:102D200042E803134BB1016851E8031F026821F028
:102D3000C00142E80313002BDAD1202180F84110B2
:102D40000168496990F84220222A40F07D8011F004
:102D5000400179D00021C185016851E8031F026854
:102D600021F4907142E80313BBB3016851E8031FDB
:102D7000026821F4907142E8031373B3016851E8CB
:102D8000031F026821F4907142E803132BB301681A
:102D900051E8031F026821F4907142E80313002BED
:102DA000DAD11AE0016851E8051F026821F001013B
:102DB00042E80513DBB1016851E8051F026821F004
:102DC000010142E8051393B1016851E8051F02684B
:102DD00021F0010142E805134BB1016851E8051FDC
:102DE000026821F0010142E80513002BDAD1016BE2
:102DF000012924D1016851E8031F026821F0100164
:102E000042E80313DBB1016851E8031F026821F0B7
:102E1000100142E8031393B1016851E8031F0268EF
:102E200021F0100142E803134BB1016851E8031F80
:102E3000026821F0100142E80313002BDAD12021AF
:102E400080F8421000210163416C41F0100141649F
:102E5000FFF73AB80168806B0968C90500F19F80E7
:102E60000021C185016851E8031F026821F48071C7
:102E700042E80313E3B1016851E8031F026821F43B
:102E8000807142E803139BB1016851E8031F026897
:102E900021F4807142E8031353B1016851E8031F24
:102EA000026821F4807142E80313002BDAD100BFDD
:102EB000016851E8051F026821F0010142E805138D
:102EC000BBB3016851E8051F026821F0010142E827
:102ED000051373B3016851E8051F026821F0010171
:102EE00042E805132BB3016851E8051F026821F081
:102EF000010142E80513002BDAD11AE0016851E81C
:102F0000051F026821F0400142E80513DBB10168AA
:102F100051E8051F026821F0400142E8051393B112
:102F2000016851E8051F026821F0400142E80513DD
:102F30004BB1016851E8051F026821F0400142E8E9
:102F40000513002BDAD1202180F84210016B0129F2
:102F500025D100BF016851E8031F026821F010016C
:102F600042E80313DBB1016851E8031F026821F056
:102F7000100142E8031393B1016851E8031F02688E
:102F800021F0100142E803134BB1016851E8031F1F
:102F9000026821F0100142E80313002BDAD100216E
:102FA0004163016B012918BFFFF77EBB818DFEF7DE
:102FB0007BBE0000806B01214163016B012918BFBA
:102FC000FFF774BB818D4908FEF76EBE0168806B08
:102FD0000968C90548BFFFF7C9BB0021C18400BF0C
:102FE000016851E8051F026821F0800142E80513DD
:102FF00083B3016851E8051F026821F0800142E8AF
:1030000005133BB3016851E8051F026821F08001F8
:1030100042E80513F3B1016851E8051F026821F089
:10302000800142E80513002BDAD113E0016851E872
:10303000031F026841F0400142E80313002B08BF60
:103040007047016851E8031F026841F0400142E8FF
:10305000031393B1016851E8031F026841F0400176
:1030600042E803134BB1016851E8031F026841F0C5
:10307000400142E80313002BD8D17047806BFFF763
:1030800077BB000081B090F84210222921D18368DB
:103090000246B3F5805F09D152F8281F52F8183C58
:1030A000002B63D003685B680AE000BF52F8281F5A
:1030B00013B90369002BF5D003685B6803F07F0345
:1030C0000B70116801311160C18D01390A04C1858D
:1030D00002D001B0704700BF0168CA6822F0200228
:1030E000CA60CA6822F48072CA604A6922F001028A
:1030F0004A61202180F8421000214163026B012ABD
:103100003CD10163016851E8031F026821F01001FE
:1031100042E80313DBB1016851E8031F026821F0A4
:10312000100142E8031393B1016851E8031F0268DC
:1031300021F0100142E803134BB1016851E8031F6D
:10314000026821F0100142E80313002BDAD1016874
:103150000A68D20606D5002200920A6800924968E1
:1031600000910099818D01B0FEF79EBD0268526802
:103170006FF35F2221F8022B8162A5E701B0FFF710
:1031800093BA000010B504460068D4E902C223696E
:10319000016921F4405111430161626943EA0C0164
:1031A000E3691143C268194349F20C639A4311431E
:1031B000C1604169A26921F4407141F200431143A9
:1031C00040F48062C4F201039A42416102D1FDF7EA
:1031D0003FFF01E0FDF728FFE16963681922B1F5BF
:1031E000004FA0FB020123D15A00DB0FFDF74EF880
:1031F00048F21F51C5F2EB11A0FB01235A094FF60B
:103200009C73C0F6FF7303F1805302FB030032236B
:1032100003EBC000A0FB01014FF4F87000EA1110AD
:1032200000EB0210C1F3421108442168886010BD10
:103230009A009B0FFDF72AF848F21F51C5F2EB11D7
:10324000A0FB01235A094FF69C73C0F6FF7302FBE3
:103250000300322303EB0010A0FB0101F02000EA81
:10326000511000EB0210C1F343110844216888603B
:1032700010BD0000B0B582B040F27414C2F2000478
:1032800020680168C90625D50021019101680191D6
:103290004068019001982046FEF708FDE06B0DF1B3
:1032A0000301006801224068C0F114008DF803009A
:1032B0002046FFF7FDF940F270059DF80320C2F2A9
:1032C000000520462946FFF7F3F920462946142237
:1032D000FFF73AF940F27410C2F20000FEF7F6FD73
:1032E00002B0B0BDFEE70000FDF7D0FCFFF7C4FB65
:1032F000FFF75EFAFFF740FAFFF7C0FAFFF766FB49
:10330000FFF78EFB40F22C10C2F20000FEF7E0F94E
:1033100040F2E404C2F200042046FEF7D9F9204648
:10332000FEF780FC40F27410C2F200000168CA6827
:1033300042F01002CA6040F27001C2F20001142291
:10334000FFF702F9FEE7F1EE100A4FF6FF71C0F247
:10335000C03120EA010040F04070E1EE100A7047F1
:103360000000000000000000010203040607080935
:1033700000000000010203040006101600061016EB
:10338000A03300080000002010000000E801000841
:10339000B033000810000020D0070000040200082D
:1033A00001000000100000000024F40000000000F4
:04000005080001AD41
:00000001FF
